:100000000C947B0A0C94AC0A0C94AC0A0C94AC0AC9
:100010000C94AC0A0C94AC0A0C94AC0A0C94AC0A88
:100020000C94AC0A0C94AC0A0C94AC0A0C94AC0A78
:100030000C94AC0A0C94AC0A0C94AC0A0C94AC0A68
:100040000C94AC0A0C94AC0A0C94AC0A0C94AC0A58
:100050000C94AC0A0C94AC0A0C94AC0A0C9441338A
:100060000C94AC0A0C940B330C94E1320C94AC0A53
:100070000C94AC0A0C94AC0A0C94AC0A0C94AC0A28
:100080000C94AC0A0C94AC0A0C94AC0A0C94AC0A18
:100090000C94AB320C9481320C94AC0A0C94AC0AE4
:1000A0000C94AC0A0C94AC0A0C94AC0A0C94AC0AF8
:1000B0000C94AC0A0C94AC0A0C94AC0A0C94AC0AE8
:1000C0000C94AC0A0C94AC0A0C94AC0A0C94AC0AD8
:1000D0000C94AC0A0C94AC0A0C94AC0A0C94AC0AC8
:1000E0000C94AC0A000000000000000000000000BA
:1000F000000000000FFFC0000FFFC0000E01C00095
:100100000C00CE000C00DFC00C00DFE00C00CFE0E4
:100110000C00C3F00C00C1F80E01E0780FFFFC3CAE
:100120000FFFFE3C0FFFFE380FFFCE380FFFCE381B
:100130000FFFCE3C0FFFCE3C0FFFCE1C0FFFCE1C9F
:100140000FFFCF1C0FFFC71C0FFFC7FC3FFFF7FCC3
:100150003FFFF3F800000000000000000000000076
:100160000000000000000000003E5B4F5B3E3E6B65
:100170004F6B3E1C3E7C3E1C183C7E3C181C577D41
:10018000571C1C5E7F5E1C00183C1800FFE7C3E78D
:10019000FF0018241800FFE7DBE7FF30483A060E9F
:1001A0002629792926407F050507407F05253F5AE6
:1001B0003CE73C5A7F3E1C1C08081C1C3E7F142256
:1001C0007F22145F5F005F5F06097F017F00668901
:1001D000956A606060606094A2FFA29408047E0447
:1001E0000810207E201008082A1C08081C2A08086D
:1001F0001E101010100C1E0C1E0C30383E3830062D
:100200000E3E0E06000000000000005F0000000728
:10021000000700147F147F14242A7F2A1223130856
:10022000646236495620500008070300001C224132
:10023000000041221C002A1C7F1C2A08083E0808D6
:100240000080703000080808080800006060002086
:10025000100804023E5149453E00427F4000724969
:100260004949462141494D331814127F102745450D
:1002700045393C4A49493141211109073649494923
:1002800036464949291E0000140000004034000091
:1002900000081422411414141414004122140802FA
:1002A000015909063E415D594E7C1211127C7F496D
:1002B0004949363E414141227F4141413E7F4949C2
:1002C00049417F090909013E414151737F080808EE
:1002D0007F00417F41002040413F017F08142241BF
:1002E0007F404040407F021C027F7F0408107F3E19
:1002F0004141413E7F090909063E4151215E7F0986
:10030000192946264949493203017F01033F4040EC
:10031000403F1F2040201F3F4038403F63140814D7
:100320006303047804036159494D43007F4141410F
:100330000204081020004141417F040201020440F0
:1003400040404040000307080020545478407F2874
:100350004444383844444428384444287F3854546A
:10036000541800087E090218A4A49C787F0804048D
:100370007800447D40002040403D007F102844002C
:1003800000417F40007C047804787C0804047838BD
:1003900044444438FC1824241818242418FC7C08ED
:1003A000040408485454542404043F44243C40406A
:1003B000207C1C2040201C3C4030403C442810281D
:1003C000444C9090907C4464544C44000836410066
:1003D0000000770000004136080002010204023CE0
:1003E0002623263C1EA1A161123A4040207A3854AF
:1003F0005455592155557941225454784221555428
:10040000784020545579400C1E527212395555557A
:1004100059395454545939555454580000457C4165
:100420000002457D420001457C407D1211127DF0A5
:10043000282528F07C545545002054547C547C0ACF
:10044000097F4932494949323A4444443A324A4898
:1004500048303A4141217A3A42402078009DA0A09C
:100460007D3D4242423D3D4040403D3C24FF2424EE
:10047000487E4943662B2FFC2F2BFF0929F620C00D
:10048000887E090320545479410000447D4130485E
:10049000484A32384040227A007A0A0A727D0D19A1
:1004A000317D2629292F28262929292630484D4003
:1004B00020380808080808080808382F10C8ACBAFF
:1004C0002F102834FA00007B000008142A1422227E
:1004D000142A14085500550055AA55AA55AAFF55C7
:1004E000FF55FF000000FF00101010FF001414144F
:1004F000FF001010FF00FF1010F010F0141414FC97
:10050000001414F700FF0000FF00FF1414F404FCB3
:10051000141417101F10101F101F1414141F001094
:100520001010F0000000001F101010101F1010100D
:1005300010F010000000FF1010101010101010101C
:10054000FF10000000FF140000FF00FF00001F105C
:10055000170000FC04F414141710171414F404F416
:100560000000FF00F714141414141414F700F71407
:100570001414171410101F101F141414F414101056
:10058000F010F000001F101F0000001F14000000FA
:10059000FC140000F010F01010FF10FF141414FFF2
:1005A000141010101F00000000F010FFFFFFFFFFED
:1005B000F0F0F0F0F0FFFFFF0000000000FFFF0F81
:1005C0000F0F0F0F3844443844FC4A4A4A347E0225
:1005D000020606027E027E026355494163384444A6
:1005E0003C04407E201E2006027E020299A5E7A55B
:1005F000991C2A492A1C4C7201724C304A4D4D30CC
:100600003048784830BC625A463D3E494949007EF0
:100610000101017E2A2A2A2A2A44445F4444405187
:100620004A444040444A51400000FF0103E080FF3B
:10063000000008086B6B083612362436060F090FC7
:1006400006000018180000001010003040FF0101E3
:10065000001F01011E00191D1712003C3C3C3C000C
:100660000000000000002100240027002A002D00C7
:100670003000330001010000040107010A010000FD
:100680002200250028002B002E003100340002013A
:100690000000050108010B0105050505070508080F
:1006A0000808020202020A0A0808040404040101FC
:1006B0000101010101010303030303030303040711
:1006C00007070C0C0C0C0C0C0C0C020202020606A8
:1006D0000606060606060B0B0B0B0B0B0B0B01029B
:1006E0001020200808102040102040800201020144
:1006F00008040201010204081020408080402010FC
:100700000804020180040201804020100804020154
:1007100008040201010204081020408001020408BC
:100720001020408000000A0B02090C0D0E08070380
:1007300004010000000000000000000000000000B4
:1007400000000000000000000000000000000000A9
:100750001211100000000000000000000000000066
:100760000000000000000000000011007F9629003A
:1007700001007F9628003A0155C0021010C10141C6
:10078000C50400228040360168B00100B102B011FA
:10079000B40102B60302023BB701C63A0155F704A1
:1007A000A9512C82C0020D0DC1024300C20100C537
:1007B0000400480048B40100B60302023BE00F0FFA
:1007C000211C0B0E08499838091103141000E10F81
:1007D0000F2F2B0C0E06477637071104231E00B08F
:1007E0000100B30402000000B40100D00307421866
:1007F000D103000710D2020102D3020102D4020188
:1008000002C005123B000211C103101088C501038C
:10081000C60102C80C003236450616377577540CEF
:1008200000CC0100F603010100CF03008130ED048C
:1008300064031281E803851078CB05392C0034025B
:10084000F70120EA020000B00100B102001BB40170
:1008500000C00121C10111C5023F3CC701B53601ED
:1008600048F20100260101E00F0F26240B0E095467
:10087000A8460C17090F0700E10F00191B04100709
:100880002A473903060630380F360100B00100C18F
:100890000410100202C006003500000102C5010468
:1008A000D2020104CA0100EA0180B903FF83577F25
:1008B000967F96B60125C0065050013C1E08B4072D
:1008C0000240002A2A0D787F01F20B161603080851
:1008D000080810041616FD03110235B2050C0C00B1
:1008E0003333B70135BB012BC00104C20201FFC382
:1008F0000111C40120C6010FD002A4A1E00ED00056
:10090000050E150D3743470915121619E10ED000D3
:10091000050D0C062D44400E1C1816193A01557F82
:100920000AB00103E2013FC00122E20100B0010070
:10093000C0010AB00100000000000000000000003B
:10094000000000000000FFFF0F000004006208002C
:1009500008080003000C01030B5A020306090303F5
:100960001710040300230503001706030963070398
:10097000090C08030C1009033222100016001100A4
:100980000101120000001300010000013003010109
:1009900037020301000D800200610201B0C1FFFFB8
:1009A00032000100000102000001030030100900C4
:1009B00001000C000000900000800F0000001002F9
:1009C00000001102EF001202000013028F01000567
:1009D00000000105000002055F000104010004049D
:1009E0000000FFFF320007000001FFFF320000029D
:1009F00000000102000000000000000000000000F4
:100A0000000000000100A4000100FFFF0A006000D8
:100A100000270800080830001402310015373200A2
:100A200004063300160E340011223500001536007E
:100A300007853700071438000314390020009000A0
:100A400015001000100411003702290046002A008A
:100A50004600070000001200890113000011FFFF8B
:100A600096001200B901010000010200000203001B
:100A70003010090001000A0000000D0000000E0007
:100A80003000610001006A00000080000000810069
:100A9000000082005F009200000193000107FFFF49
:100AA000500007000001E500F0780100000102009D
:100AB00000020300301004000000050000000800E0
:100AC0000702090000000A0000000C0000000D00F1
:100AD00000000F00000010000000110007001200CD
:100AE00000001300000007000100FFFFC800100015
:100AF000901611002702FFFF320012000D00FFFFC9
:100B000032001300001229000A002B000D00FFFF25
:100B10003200200000002100000030000000310001
:100B200004043200030035000504360008083700CD
:100B3000070438000303390007073C0004053D00A3
:100B4000080860000027610001006A0000008000C2
:100B5000000081000000820000008300000084008B
:100B600000008500000090001000920000000700C7
:100B70003301E500008000000100010000010200D7
:100B80000007030030100400000008000202090002
:100B900000000A0000000C0000000D0000000F0023
:100BA00000001000000011000700120000001300F8
:100BB0000000FFFF32001000B01711000700FFFF18
:100BC0000A0012003A01FFFF0A001300001A290070
:100BD0000C00FFFF0A003000000031000505320064
:100BE000040035000600360007073700050138000D
:100BF0000200390007073C0004073D0007086000B9
:100C000000A7610001006A00000021000000200030
:100C100000008000000081000000820000008300CE
:100C20000000840000008500000090001000920089
:100C30000000930003009500100197000000980049
:100C4000000007007301FFFF3200FF000100F30006
:100C5000080000000100010000010200000703007D
:100C6000301008000203090000001000000011000D
:100C700007001200000013000000FFFF3200100008
:100C8000B014FFFF0A0011000700FFFF0A00120066
:100C90008E001300000C29001500FFFF0A00300031
:100CA0000000310007013200000035000302360069
:100CB00002043700000038000702390000003C0041
:100CC00003023D000304600000A7610001009000E2
:100CD000290007003301FFFF3200150030009A00A1
:100CE0001000110020001000283412000200130030
:100CF0003810FFFF280012001200FFFF280010002C
:100D0000203413004530FFFF460030000000310062
:100D100002043200070333000403340004003500EA
:100D200001043600070737000503380010063900B4
:100D3000100601000001020000030300301008004B
:100D400008080A0008006000002761000100900008
:100D50003E019200000193000001A0000030A300BA
:100D60001000070001000700210007002300070012
:100D700033000700330111001A0012002131130063
:100D80006C001400494210000008FFFF0A00110027
:100D90001A01FFFF0A0011001A03FFFF0A001100E9
:100DA0001A07FFFF0A0011001A0FFFFF0A001100C7
:100DB0003A0FFFFF1E00010028010200000103009E
:100DC000301007001210080003030B0000110C0084
:100DD00000000F0001181500200050000101510013
:100DE0000306520008045300000054000506550095
:100DF000060456000303570003035800100059006F
:100E0000001007001200FFFF280007001300070072
:100E100017000001FC0000000FFF8000003FFFE012
:100E20000000FE23F80001F0207C0003C0201E001B
:100E30000780000F000F80000F801FC0001FC01C24
:100E4000C00009C038100000E038380000E0701C15
:100E5000000070700E0000707007000070E00380EA
:100E60000038E001F00038E000F80038FC00F8013C
:100E7000F8E000F80038E000700038E000000038CA
:100E8000700000007070000000707000000070388A
:100E9000000000E038000000E01C000001C01EC09F
:100EA000001BC00FC0001F800780000F0003000060
:100EB000060000000000000000000000001FF80015
:100EC0000000000000FFFF000000000007FFFFE03F
:100ED000000000001FFFFFF8000000E03FFFFFFCE4
:100EE000070001F07FC003FE0F8001F0FF0000FF4C
:100EF0000F8003E1FC00003F87C007E3F000000F14
:100F0000C7E007C7E0000007E3E00F8FC000000361
:100F1000F1F00F9F80000001F9F01F1F000000009A
:100F2000F8F81F3F00000040FCF81E3E00000000E3
:100F30007C783E7E000000007E7C3E7C000000004D
:100F40003E7C3C7C000000003E3C3CF80FC003F0BF
:100F50001F3C7CF83FF00FFC1F3E7CF878781E1E8B
:100F60001F3E7CF8703C3C0E1F3E7CF0E01E780774
:100F70000F3E7CF0C007E0030F3E7CF0C003C003CF
:100F80000F3E7CF0C003C0030F3E7CF0C007E003BF
:100F90000F3E7CF0E01E78070F3E7CF8703C3C0E64
:100FA0001F3E7CF878781E1E1F3E3CF83FF00FFC79
:100FB0001F3C3C7C0FC003F83E3C3E7C0000000020
:100FC0003E7C3E7C000000003E7C1E3E0000000097
:100FD0007C781F3F00000000FCF81F1F000000008D
:100FE000F8F80F9F80000001F9F00F8FC000000398
:100FF000F1F007C7E0000007E3E007E7F000000FAB
:10100000C7E003E3FC00003FC7C003F1FE00007F20
:101010008FC001F0FFC003FF0F8000E03FFC3FFCEA
:10102000070000001FFFFFF80000000007FFFFE0BF
:101030000000000001FFFF8000000000003FFC00F6
:10104000000000000000000000000000001FF80089
:101050000000000000FFFF000000000007FFFFE0AD
:10106000000000001FFFFFF8000000E03FFC3FFC15
:10107000070001F07F8001FE0F8001F0FE00007F7D
:101080000F8003E1F800001F87C007E3F000000FA6
:10109000C7E007C7E0000007E3E00F8FC0000003D0
:1010A000F1F00F9F80000001F9F01F1F0000000009
:1010B000F8F81F3E000000007CF81E3E0000000013
:1010C0007C783E7C000000003E7C3E7C00000000FE
:1010D0003E7C3C78000000001E3C3CF80000000014
:1010E0001F3C7CF8000000001F3E7CF8020000203E
:1010F0001F3E7CF0FF00007F0F3E7CF0FF81C0FFB1
:101100000F3E7CF0FFC3E1FF0F3E7CF0FFE3E3FF07
:101110000F3E7CF0FFC3E1FF0F3E7CF0FF81C0FF7C
:101120000F3E7CF0FF00007F0F3E7CF802000020A5
:101130001F3E7CF8000000001F3E3CF8000000004D
:101140001F3C3C78000000001E3C3E7C000000007C
:101150003E7C3E7C000000003E7C1E3E0000000005
:101160007C781F3E000000007CF81F1F000000007C
:10117000F8F80F9F80000001F9F00F8F8000000148
:10118000F1F007C7C0000003E3E007E7F000000F3D
:10119000C7E003E3F800001FC7C003F1FE00007FB3
:1011A0008FC001F0FF8001FF0F8000E03FF81FFCBF
:1011B000070000001FFFFFF80000000007FFFFE02E
:1011C0000000000001FFFF8000000000003FFC0065
:1011D000000000000000000000000000001FF800F8
:1011E0000000000000FFFF000000000007FFFFE01C
:1011F000000000001FFFFFF8000000E03FFFFFFCC1
:10120000070001F07FC003FE0F8001F0FF0000FF28
:101210000F8003E1FC00003F87C007E3F000000FF0
:10122000C7E007C7E0000007E3E00F8FC00000033E
:10123000F1F00F9F80000001F9F01F1F0000000077
:10124000F8F81F3F00001FC0FCF81E3E00001FE022
:101250007C783E7E00001FE07E7C3E7C00001FF01C
:101260003E7C3C7C0000F0F03E3C3CF8003FF8F057
:101270001F3C7CF807FFF8F01F3E7CF8FFFFF9FDEC
:101280001F3E7CF9FFFF07FF1F3E7CF1FFE007EFE9
:101290008F3E7CF1FC0007CF8F3E7CF000000707FB
:1012A0008F3E7CF0000007078F3E7CF1F80007CFEF
:1012B0008F3E7CF1FFC007EF8F3E7CF9FFFE07EF0A
:1012C0001F3E7CF9FFFFF3FF1F3E3CF80FFFF0FECF
:1012D0001F3C3C7C007FF0F03E3C3E7C0003F0F085
:1012E0003E7C3E7C000001F03E7C1E3E00001FF074
:1012F0007C781F3F00001FE0FCF81F1F00001FC08C
:10130000F8F80F9F80001F81F9F00F8FC0000003D5
:10131000F1F007C7E0000007E3E007E7F000000F87
:10132000C7E003E3FC00003FC7C003F1FE00007FFD
:101330008FC001F0FFC003FF0F8000E03FFC3FFCC7
:10134000070000001FFFFFF80000000007FFFFE09C
:101350000000000001FFFF8000000000003FFC00D3
:10136000000000000000000000000000001FF80066
:101370000000000000FFFF000000000007FFFFE08A
:10138000000000001FFFFFF8000000E03FFFFFFC2F
:10139000070001F07FC003FE0F8001F0FF0000FF97
:1013A0000F8003E1FC00003F87C007E3F000000F5F
:1013B000C7E007C7E0000007E3E00F8FC0000003AD
:1013C000F1F00F9F803FF801F9F01F1F007FFE0032
:1013D000F8F81F3F007FFF00FCF81E3E007FFF80F3
:1013E0007C783E7E007C3FC07E7C3E7C007C07C0DB
:1013F0003E7C3C7C007C03E03E3C3CF8007C03E00F
:101400001F3C7CF8007C03E01F3E7CF8007C03E07E
:101410001F3E7CF8007C03E01F3E7CF0007C07E070
:101420000F3E7CF0007C0FC00F3E7CF0007FFFC0C1
:101430000F3E7CF0007FFF800F3E7CF0007FFF00BE
:101440000F3E7CF0007FFE000F3E7CF8007FF8002E
:101450001F3E7CF8007C00001F3E3CF8007C000032
:101460001F3C3C7C007C00003E3C3E7C007C00003D
:101470003E7C3E7C007C00003E7C1E3E007C0000EA
:101480007C781F3F007C0000FCF81F1F007C0000E0
:10149000F8F80F9F807C0001F9F00F8FC0780003EF
:1014A000F1F007C7E0100007E3E007E7F000000FE6
:1014B000C7E003E3FC00003FC7C003F1FE00007F6C
:1014C0008FC001F0FFC003FF0F8000E03FFC3FFC36
:1014D000070000001FFFFFF80000000007FFFFE00B
:1014E0000000000001FFFF8000000000003FFC0042
:1014F00000008B33EF4311241FBECFEFD1E2DEBFDC
:10150000CDBF00E00CBF14E0A0E0B2E0EEE0F2E9F5
:1015100000E00BBF02C007900D92A031B107D9F7D0
:1015200026E0A0E1B4E001C01D92A231B207E1F7CC
:101530001AE0CAE7DAE000E006C021970109802F2F
:10154000FE010E94B046C937D10780E00807A9F71D
:101550000E94F1340C94F6480C9400002F923F92B4
:101560004F925F926F927F928F929F92AF92BF92B3
:10157000CF92DF92EF92FF920F931F93CF93DF935F
:10158000CDB7DEB76D970FB6F894DEBF0FBECDBFF7
:10159000FC013A8729871C870B87FE86ED86D88A4F
:1015A000CF8684819581892B09F43BC1808191810B
:1015B000F90171836083F80151834083F601118240
:1015C0001082F70111821082A090E105B090E2052F
:1015D0002091E3053091E4053C8F2B8F2090F2059C
:1015E0003090F3053091F0053E83F090ED052F2DFE
:1015F00030E0388F2F8BE6E0FE9E90011124388773
:101600002F83E090EE05F8E0EF9E60011124910138
:101610002C5F3F4F3A8B298B2F5F3F4F3C8B2B8B9F
:10162000235031093A8F298F2C5F3F4F3D832C8304
:1016300089839A83850144244A94542CAFEFBFEFE9
:10164000E981FA818191FA83E983882309F4C9C089
:101650002114310409F490C08A3051F4EC81FD81E9
:1016600084918E9D400D511D112470E060E0E8CF03
:101670008D3031F3E989FA899491EB89FC89949052
:10168000282F082E000C330B9217130609F0C4F60E
:1016900092161306ACF2E98DFA8D25913491891BCF
:1016A000F7E08F9F200D311D1124F90132968491AE
:1016B0008B83319694919D8B319684918E8B31964C
:1016C00084912A5F3F4FF901F491FD8F2E812223EF
:1016D000F1F03B81632E712C680E711C87FD7A94AA
:1016E0002F89388D629E4001639E900C729E900CF3
:1016F0001124860E971EA814B9044CF4EC81FD81C8
:1017000094919E9D400D511D112470E060E02F2D9D
:10171000382F3203C0011124860F971F2E2D3D8DC7
:101720003203F00111249F01240F351F8017910708
:101730000CF48C01EB8DFC8D2E173F0714F43C8FBD
:101740002B8FFB81FF9D800D911D11240197A81700
:10175000B9070CF4DC018D898E9D200D311D1124FB
:1017600021503109421653060CF429019E899F9D90
:10177000600D711D112464CF8A3019F44C0D5D1D6C
:1017800074CF8D3009F45CCF2E81222359F08F81E4
:101790009885860F971FA816B90624F44C0D5D1D79
:1017A00070E060E02F813885260F371FC90101974F
:1017B000A817B9070CF4DC01C601840F951F019727
:1017C000481659060CF42C01601771070CF48B01B4
:1017D0008B8D9C8D4817590714F45C8F4B8FB90182
:1017E0002FCFA017B1075CF0E985FA85118300833C
:1017F000A01BB10B1196ED85FE85B183A0832B8DC7
:101800003C8D421653066CF0EB85FC8531832083BA
:10181000421A530AFFEF4F1A5F0AEF85F889518287
:1018200040826D960FB6F894DEBF0FBECDBFDF913C
:10183000CF911F910F91FF90EF90DF90CF90BF90CD
:10184000AF909F908F907F906F905F904F903F9060
:101850002F900895089508950895DB0114964D91F1
:101860005C9115976D917C91DC01ED91FC9102806A
:10187000F381E02D1994AF92BF92CF92DF92EF9255
:10188000FF920F931F93CF93DF936C017B018B012A
:10189000040F151FEB015E01AE18BF08C017D1077A
:1018A00059F06991D601ED91FC910190F081E02D04
:1018B000C6011995892B79F7C501DF91CF911F9149
:1018C0000F91FF90EF90DF90CF90BF90AF90089571
:1018D000FC01538D448D252F30E0842F90E0821B36
:1018E000930B541710F0CF96089501970895FC01BB
:1018F000918D828D981761F0A28DAE0FBF2FB11D13
:101900005D968C91928D9F5F9F73928F90E008956A
:101910008FEF9FEF0895FC01918D828D981731F024
:10192000828DE80FF11D858D90E008958FEF9FEF78
:101930000895FC01918D228D892F90E0805C9F4F4E
:10194000821B91098F739927089587E294E0F1DF54
:1019500021E0892B09F420E0822F089584EC94E0A3
:10196000E8DF21E0892B09F420E0822F0895FC01B3
:10197000A48DA80FB92FB11DA35ABF4F2C91848DF0
:1019800090E001968F739927848FA689B7892C934D
:10199000A089B1898C91837080648C93938D848DA0
:1019A000981306C00288F389E02D80818F7D8083A3
:1019B0000895EF92FF920F931F93CF93DF93EC0163
:1019C00081E0888F9B8D8C8D98131AC0E889F989E6
:1019D000808185FF15C09FB7F894EE89FF896083E9
:1019E000E889F98980818370806480839FBF81E06A
:1019F00090E0DF91CF911F910F91FF90EF900895AC
:101A0000F62E0B8D10E00F5F1F4F0F731127E02E86
:101A10008C8D8E110BC00FB607FCFACFE889F989BF
:101A2000808185FFF5CFCE01A2DFF2CFEB8DEC0FE9
:101A3000FD2FF11DE35AFF4FF0829FB7F8940B8FF3
:101A4000EA89FB8980818062D0CFCF93DF93EC015C
:101A5000888D8823B1F0AA89BB89E889F9898C919E
:101A600085FD03C0808186FD0CC00FB607FCF7CF53
:101A70008C9185FFF2CF808185FFEDCFCE0177DF9E
:101A8000EACFDF91CF91089580E090E0892B21F09B
:101A900065DF81110E94000080E090E0892B21F039
:101AA00054DF81110E94000080E090E0892B49F012
:101AB00080E090E0892B29F00E94000081110E94B3
:101AC000000080E090E0892B49F080E090E0892BD5
:101AD00029F00E94000081110C9400000895282F25
:101AE00030E0F901EC5DF84F9491F901E252F94FC1
:101AF00044912856394FF9012491222309F435C025
:101B0000992311F191509231F8F4E92FF0E08827F0
:101B1000E357F24F8F4F0C94B046BE0DC20D9F0D90
:101B2000B60DBA0DA40DC50DCB0DCF0DD50DD90D2C
:101B3000DD0DE30DE70DA40DEB0DF10DF50D80911D
:101B400080008F7780938000E22FF0E0EE0FFF1F80
:101B5000E258F94FA591B4918FB7F894EC916111C7
:101B600048C040954E234C938FBF089580918000CC
:101B70008F7DE8CF80918000877FE4CF84B58F7719
:101B800084BDE2CF84B58F7DFBCF8091B0008F778D
:101B90008093B000D9CF8091B0008F7DF9CF809134
:101BA00090008F7780939000CFCF809190008F7DB1
:101BB000F9CF80919000877FF5CF8091A0008F773B
:101BC0008093A000C1CF8091A0008F7DF9CF80913C
:101BD000A000877FF5CF809120018F77809320012F
:101BE000B3CF809120018F7DF9CF80912001877F35
:101BF000F5CF4E2BB8CFCF93DF9390E0FC01E252AC
:101C0000F94F24918856994FFC0184918823D1F093
:101C100090E0880F991FFC01EC59F94FA591B49100
:101C2000FC01E258F94FC591D49161110EC09FB7E4
:101C3000F8948C91E22FE0958E238C932881E223F7
:101C4000E8839FBFDF91CF9108958FB7F894EC910F
:101C5000E22BEC938FBFF6CF3FB7F8948091180436
:101C600090911904A0911A04B0911B0426B5A89B69
:101C700005C02F3F19F00196A11DB11D3FBFBA2F1E
:101C8000A92F982F8827BC01CD01620F711D811DDE
:101C9000911D42E0660F771F881F991F4A95D1F763
:101CA00008958F929F92AF92BF92CF92DF92EF9260
:101CB000FF926B017C01D0DF4B015C01C114D104A8
:101CC000E104F104B1F0C8DF681979098A099B09B8
:101CD000683E73408105910588F321E0C21AD1085E
:101CE000E108F10888EE880E83E0981EA11CB11C63
:101CF000E5CFFF90EF90DF90CF90BF90AF909F9097
:101D00008F9008952FB7F894609114047091150482
:101D100080911604909117042FBF08950F931F937D
:101D2000F1DF6093CC047093CD048093CE04909344
:101D3000CF0484EC94E0DBDD97FF1CC0E3DF00916F
:101D4000CC041091CD042091CE043091CF04601BBF
:101D5000710B820B930B0091C8041091C904209160
:101D6000CA043091CB04601771078207930708F308
:101D70008FEF9FEF1F910F9108950895FC016370FD
:101D8000668B8481958126813781613039F063309B
:101D900029F09187808733872287089531872087AC
:101DA0009387828708952F923F924F925F926F920E
:101DB0007F928F929F92AF92BF92CF92DF92EF92DB
:101DC000FF920F931F93CF93DF93CDB7DEB76A9740
:101DD0000FB6F894DEBF0FBECDBF9A8F898F7A837E
:101DE00069834A01D22E18870F833701BC2CDC018E
:101DF00059962D913C915A972115310509F015C13D
:101E000018968D919C911997681779070CF0D7C196
:101E10001A968D919C91481759070CF0D0C14C2C03
:101E2000512CB6E0CB9E600D711D11247C876B8711
:101E3000161617060CF0C3C1EA2DF0E0FA87E98701
:101E400093E0EE0FFF1F9A95E1F7F88BEF87CF0134
:101E5000840F951F181619060CF0B1C1A98DBA8D03
:101E600058968C91811104C0BFEABD1508F4D39433
:101E7000A98DBA8DED91FC9111970284F385E02D27
:101E8000CD011995B5E0DB9EC0011124E981FA81ED
:101E9000FC83EB83312C212C9C012C593E4F388F35
:101EA0002F8B4A2D50E05E8B4D8BEF89F88DE20D24
:101EB000F31D44919E828D82D12CC12C69817A813F
:101EC000620D731D7A8B698B842F90E09C8B8B8BBA
:101ED000E98DFA8DA081B18140FF82C0F1E0BF128F
:101EE0006FC0AF126DC01C96ED91FC912F813885AB
:101EF000A4014C0D5D1D69897A89898D9A8D19958A
:101F0000EB89FC89F595E7954E2F5FEFC51AD50A49
:101F10006D817E818D899E89680F791F7E836D8397
:101F200098E0C916D10481F6AFEF2A1A3A0AEB817C
:101F3000FC81E40DF51DFC83EB83F5E02F163104E5
:101F400009F0B3CF2F81388526153705B9F0A98D53
:101F5000BA8DED91FC91B1E0BB1257C0AB1255C0E8
:101F600069817A816B5F7F4F0088F189E02D830161
:101F700028E030E0A401898D9A8D1995A98DBA8D3C
:101F8000ED91FC9111970688F789E02DCD016A96B5
:101F90000FB6F894DEBF0FBECDBFDF91CF911F917A
:101FA0000F91FF90EF90DF90CF90BF90AF909F90F8
:101FB0008F907F906F905F904F903F902F901994EB
:101FC0001E96ED91FC91EF80F88409851A859201A7
:101FD0004D815E816B817C81898D9A8D199590CF21
:101FE0002F8138852615370509F48ACF31E0B312E1
:101FF00007C0A31205C01C96ED91FC91930178CF08
:102000001E96ED91FC917301E0CF6B857C85641980
:1020100075090684F785E02D73010F8518899201F3
:10202000A401898D9A8D1995A9CFF90134969491BF
:10203000329745915491D91AB7E0DB9E400D511D5E
:102040001124F901259134913C8B2B8BFA012590B9
:102050003490FA013296749031963491398B3296DD
:1020600064903196449041E04C1518F04A1508F000
:102070007FC0662D062C000C770B7C836B83842D30
:10208000042C000C990B9E838D83A98DBA8DED9144
:10209000FC9111970284F385E02DCD011995512C07
:1020A000D12CC12CEA2DF0E0FA87E9872B2D30E006
:1020B0003C872B87A401440D511D47FC5A95588F2E
:1020C0004F8B69817A81660D711D67FC7A957E87D9
:1020D0006D877989C71608F051CF2C2D30E04D81DE
:1020E0005E81420F531FA985BA854A9FC0014B9F4D
:1020F000900D5A9F900D1124FC01E80DF91DF88BED
:10210000EF87852D612C4F89588D420F531F5E8BB1
:102110004D8B671408F050C044244394480E8770D8
:1021200041F4C1010196EB89FC89E20DF31DD490C5
:102130001C01D7FE19C0A98DBA8DED91FC91662DB9
:1021400070E0B1E0BB1219C0AB1217C02D853E85FF
:10215000620F731F0484F585E02D2F8138854D892A
:102160005E89898D9A8D1995DD0C6394842DD1CF6C
:102170001E821D821C821B8288CF4B815C81640F72
:10218000751FAB85BC856A9FC0016B9F900D7A9FC0
:10219000900D112469817A81680F791F0684F78573
:1021A000E02DEF80F88409851A859D014F855889B7
:1021B000898D9A8D1995D8CF570CC3948ACF6A967A
:1021C0000FB6F894DEBF0FBECDBFDF91CF911F9148
:1021D0000F91FF90EF90DF90CF90BF90AF909F90C6
:1021E0008F907F906F905F904F903F902F900895C9
:1021F0008F929F92AF92CF92EF92FF920F931F9385
:10220000CF93DF93EC01262F898D9A8D009709F0EB
:1022100050C06A30D1F41D861C868D8948E0849FA9
:10222000900111248E859F85820F931F9F878E8733
:1022300081E090E0DF91CF911F910F91FF90EF909F
:10224000CF90AF909F908F9008956D3089F3CC8898
:10225000AD888F898823C1F08C859D8536E0C39E2B
:10226000800D911D1124488559854817590764F43C
:102270004E855F851D861C8638E0A39EC001112413
:10228000840F951F9F878E87EA88FB8808891989A4
:102290004E855F856C857D85CE0185DD2C898C859D
:1022A0009D8546E0249F800D911D11249D878C877C
:1022B000BFCF6A3069F41D861C86FC013696E49116
:1022C0002D898E859F85E29F800D911D1124AECFB3
:1022D0006D3009F4ADCFFC0134963491631708F4E6
:1022E000A7CF3196E491E61708F4A2CFFC0132960D
:1022F00085909490462F431B342F47E0349F800CE9
:10230000911C1124F401329634913196E4913323D7
:10231000A1F1EE2391F1CC88F4013596E491AD88DA
:102320004F89442301F10E2E000CFF0BE30FF11D2A
:10233000CE9EA001CF9E500D11246C857D85460F49
:10234000571F68857985641775076CF44E855F851E
:102350001D861C86FC013696E491AE9E400D511DF3
:1023600011245F874E87EA88FB88088919894E8582
:102370005F856C857D85CE0116DDF4013496E49190
:102380002C898C859D85E29F800D911D11248ECF17
:102390006F927F928F929F92AF92BF92CF92DF9275
:1023A000EF92FF920F931F93CF93DF93EC016B019A
:1023B0005A0139014801E881F9810284F385E02D51
:1023C0001995E881F9810288F389E02D870193014D
:1023D000A501B601CE011995A501480D591D415021
:1023E0005109E881F9810288F389E02D9301B60152
:1023F000CE011995E881F9810088F189E02D9401D9
:10240000A501B601CE011995C60CD71CB6016150C5
:102410007109E881F9810088F189E02D9401A50115
:10242000CE011995E881F9810688F789E02DCE0162
:10243000DF91CF911F910F91FF90EF90DF90CF90A0
:10244000BF90AF909F908F907F906F9019946F92F4
:102450007F928F929F92AF92BF92CF92DF92EF9234
:10246000FF920F931F93CF93DF935C01EB016A01FF
:10247000490138018701DC01ED91FC916217730776
:1024800019F5641675062CF0962D872D3A01C92E84
:10249000D82E9601261937092F5F3F4F048CF58DF2
:1024A000E02DA301BE01C5011995DF91CF911F91C8
:1024B0000F91FF90EF90DF90CF90BF90AF909F90E3
:1024C0008F907F906F9008954615570591F42617C9
:1024D000370724F0892D4B01C22FD82F9E012819D0
:1024E00039092F5F3F4F068CF78DE02DA601B4010F
:1024F000DACF0284F385E02D1995D501ED91FC9199
:102500000488F589E02D83019401A601BE01C5016F
:102510001995D501ED91FC910688F789E02DC5014B
:10252000DF91CF911F910F91FF90EF90DF90CF90AF
:10253000BF90AF909F908F907F906F901994EF9283
:10254000FF920F931F93DC011A960D911C911B971C
:1025500018962D913C911997ED91FC9100A0F1A155
:10256000E02D7B0150E040E070E060E019951F91A4
:102570000F91FF90EF9008954F925F926F927F922C
:102580008F929F92AF92BF92CF92DF92EF92FF9283
:102590000F931F93CF93DF936C012B015A013901E5
:1025A0004801DC01ED91FC910284F385E02D199541
:1025B000E201640C751CD601ED91FC91C615D7059E
:1025C0005CF40088F189E02D87019401A501BE012A
:1025D000C60119952196EFCF0688F789E02DC6012F
:1025E000DF91CF911F910F91FF90EF90DF90CF90EF
:1025F000BF90AF909F908F907F906F905F904F9023
:1026000019948F929F92AF92BF92CF92DF92EF92E6
:10261000FF920F931F93CF93DF93EC015B014A016D
:102620006901E881F9810284F385E02D199595010E
:102630002C0D3D1D21503109E881F9810488F5896F
:10264000E02D78018401A401B501CE011995E8813E
:10265000F9810688F789E02DCE01DF91CF911F9196
:102660000F91FF90EF90DF90CF90BF90AF909F9031
:102670008F9019948F929F92AF92BF92CF92DF92D8
:10268000EF92FF920F931F93CF93DF93EC015B01C7
:102690004A0169017801E881F9810284F385E02D1E
:1026A0001995C80CD91C860101501109E881F981DE
:1026B0000488F589E02D9501A401B501CE01199595
:1026C000E881F9810688F789E02DCE01DF91CF916D
:1026D0001F910F91FF90EF90DF90CF90BF90AF9040
:1026E0009F908F901994EF92FF920F931F93DC01AC
:1026F000ED91FC9100A0F1A1E02D19951F910F9192
:10270000FF90EF9008950F931F93DC01ED91FC91E2
:10271000068CF78DE02D19951F910F9108950F9359
:102720001F93DC01ED91FC91048CF58DE02D199542
:102730001F910F9108952F923F924F925F926F9247
:102740007F928F929F92AF92BF92CF92DF92EF9241
:10275000FF920F931F93CF93DF9300D000D000D050
:102760001F921F92CDB7DEB73C017E836D835B87DE
:102770004A872F832801170181E090E06C01C41A79
:10278000D50ACA019195819591099C01220F331FA9
:102790003A832983C80101969C838B83F12CE12C19
:1027A00088248394912C9B012F5F3F4F3987288782
:1027B0008A859B85E816F9060CF06AC0AA84BB845A
:1027C000D7FC0CC05C0191E0A91AB10829813A81BB
:1027D0002E5F3F4F3A832983C20ED31E3FEFE31A89
:1027E000F30A82E0880E911CC80CD91CAE14BF04F9
:1027F00044F42A853B852A153B05C9F4BB86AA8685
:10280000D7CF9501220F331F4D815E814A195B0995
:102810008F81813009F58B819C81280F391F8101BF
:10282000B701660D771D89ED95E079DFE2CF9F81D5
:10283000913019F5940122503109240D351D6A8516
:102840007B85660D771D8101488559854E195F0985
:1028500089ED95E064DFD2CF8B819C81280F391FF1
:102860008101B3016E197F0989ED95E058DF2A8552
:102870003B852A153B0509F4C1CF9401225031094B
:10288000240D351DB3018A859B85681B790BDBCF31
:102890002B960FB6F894DEBF0FBECDBFDF91CF9160
:1028A0001F910F91FF90EF90DF90CF90BF90AF906E
:1028B0009F908F907F906F905F904F903F902F9060
:1028C00008952F923F924F925F926F927F928F92D4
:1028D0009F92AF92BF92CF92DF92EF92FF920F93AF
:1028E0001F93CF93DF933C015B01EA01690148012B
:1028F000413351054CF4CA0157FD019695958795D2
:102900008C159D050CF46C011601220C331C26015C
:10291000460C571C20E330E02219330974018E0164
:10292000A501B20189ED95E0DEDEC219D309219738
:10293000AC0CBD1CC3018C199D098E0121E0A601C0
:10294000B5018F96F8DE22E0A601B501C201F3DEE3
:10295000DF91CF911F910F91FF90EF90DF90CF907B
:10296000BF90AF909F908F907F906F905F904F90AF
:102970003F902F900895DC01ED91FC910084F1854A
:10298000E02D19942F923F924F925F926F927F9217
:102990008F929F92AF92BF92CF92DF92EF92FF926F
:1029A0000F931F93CF93DF937C016B01EA0181E0CA
:1029B00090E05C01A41AB50A66247724641A750AAB
:1029C000660C771C10E000E088248394912C822F01
:1029D0008470582E822F8270482E822F8870382E55
:1029E0002170222E0C171D070CF071C0B7FC06C019
:1029F000219782E0680E711CA60CB71C0F5F1F4F59
:102A000082E0880E911CA80CB91C5520B1F02FEF64
:102A10003FEFAE014C0D5D1DB701600F711F89EDD9
:102A200095E0A9DF2FEF3FEFA601400F511FBE0138
:102A30006E0D7F1D89ED95E09EDF4420B1F02FEFF4
:102A40003FEFA6014C1B5D0BB701600F711F89EDB5
:102A500095E091DF2FEF3FEFA601401B510BBE0128
:102A60006E0D7F1D89ED95E086DF3320B1F02FEFED
:102A70003FEFA601400F511FB7016C1B7D0B89ED85
:102A800095E079DF2FEF3FEFAE014C0D5D1DB701F3
:102A9000601B710B89ED95E06EDF222009F4A2CF57
:102AA0002FEF3FEFA601401B510BB7016C1B7D0BB5
:102AB00089ED95E060DF2FEF3FEFA6014C1B5D0B2A
:102AC000B701601B710B89ED95E055DF8BCFDF916E
:102AD000CF911F910F91FF90EF90DF90CF90BF901B
:102AE000AF909F908F907F906F905F904F903F90AE
:102AF0002F9008952F923F924F925F926F927F9204
:102B00008F929F92AF92BF92CF92DF92EF92FF92FD
:102B10000F931F93CF93DF9300D01F92CDB7DEB7F3
:102B20001C012B017A016901421753070CF088C080
:102B30005A834983CA0157FD88C089819A81959536
:102B400087959A83898389819A819C838B830817CF
:102B5000190714F41C830B83AB80BC80AA0CBB1C2C
:102B600047018A189B086B807C80620C731C0FEFF6
:102B70001FEF9401A201B30189ED95E0C4DDC60108
:102B8000840D951D9A838983AC01415051099401AC
:102B9000B30189ED95E0B7DDCA18DB088B819C8114
:102BA000480E591E9601A201B10189ED95E0B7DDED
:102BB000E20CF31CB701615071099601A20189ED85
:102BC00095E0ADDD21E04B815C81B201C301DADE2D
:102BD0008B819C81E81AF90A91E0E91AF10822E058
:102BE0004B815C81B201C701CDDEC980DA808B8167
:102BF0009C81C81AD90A91E0C91AD10824E04B81F6
:102C00005C81B601C701BEDE28E04B815C81B60164
:102C1000C3010F900F900F900F90DF91CF911F91F4
:102C20000F91FF90EF90DF90CF90BF90AF909F906B
:102C30008F907F906F905F904F903F902F90A2CE9B
:102C40003A83298337FF79CFC90101969A83898313
:102C500074CF3F924F925F926F927F928F929F922A
:102C6000AF92BF92CF92DF92EF92FF920F931F939A
:102C7000CF93DF9300D01F92CDB7DEB73C016B013D
:102C80004A015901290187E0480E511C93E05594EF
:102C900047949A95E1F7CB01800F911F9A8389831E
:102CA00010E000E0312C1C821B828B819C8187709C
:102CB0009927330C892B61F4EB81FC8183E0F59536
:102CC000E7958A95E1F7E00FF11FE80DF91D3490C3
:102CD00037FE09C09701A6016B817C81660D771DC7
:102CE00089ED95E048DE8B819C8101969C838B83E6
:102CF000A816B906D1F69FEFC91AD90A040D151DF9
:102D000089819A81C816D90671F60F900F900F909D
:102D10000F90DF91CF911F910F91FF90EF90DF9077
:102D2000CF90BF90AF909F908F907F906F905F906B
:102D30004F903F9008952F923F924F925F926F92E3
:102D40007F928F929F92AF92BF92CF92DF92EF923B
:102D5000FF920F931F93CF93DF9300D000D0CDB796
:102D6000DEB73C016A013E832D83FC82EB82580171
:102D7000A41AB50AB7FE03C0B194A194B1088D801E
:102D80009E80861A970A97FE03C0919481949108B9
:102D90008A149B045CF0902F812F0D811E819D83EE
:102DA0008E839C2D8D2D6B01692F782F0C151D05A1
:102DB0005CF09D818E817E836D83692F782F902FAB
:102DC000812F8601C92ED82E1601201A310A2B0117
:102DD0002D813E81421A530A57FE03C051944194FB
:102DE0005108710137FE03C03FEFE31AF30AF5946F
:102DF000E7948D819E81861797075CF5A1E0B0E08E
:102E0000BA83A983C016D1064CF1D301ED91FC9190
:102E10000484F585E02D2B813C81A8016D817E81A4
:102E20008A149B041CF04D815E81B801C301199581
:102E3000E418F508F7FE0AC02D813E8189819A8148
:102E4000280F391F3E832D83E20CF31C0F5F1F4FA9
:102E5000D9CF2FEF3FEF3A832983D4CF26960FB6F1
:102E6000F894DEBF0FBECDBFDF91CF911F910F91C0
:102E7000FF90EF90DF90CF90BF90AF909F908F909A
:102E80007F906F905F904F903F902F9008958B9818
:102E90008A9820910201277820930201A5982EB1EB
:102EA000277C2EB970910201292F30E0F901A5E0AD
:102EB000EE0FFF1FAA95E1F7E076E72BE093020102
:102EC0007EB1F901EE0FFF1FEE0FFF1FE073E72B3E
:102ED000EEB974B3F901EE0FFF1FE072E72BE4BB0C
:102EE0007EB1F901F595E795F595E795E870E72B43
:102EF000EEB970910201E3E035952795EA95E1F787
:102F00002871272B209302018998899A2091020128
:102F1000277820930201A5982EB1277C2EB97091B5
:102F200002019C01F5E0880F991FFA95E1F7807680
:102F3000872B809302017EB1C901880F991F880FEA
:102F4000991F8073872B8EB974B3C901880F991F9D
:102F50008072872B84BB7EB1C90195958795959525
:102F600087958870872B8EB980910201F3E03595A3
:102F70002795FA95E1F72871282B2093020189986B
:102F8000899A8A9AFA01615008F43EC08191909121
:102F90000201977890930201A5989EB1977C9EB903
:102FA0004091020190E09C0155E0220F331F5A9599
:102FB000E1F72076242B209302014EB19C01220FD1
:102FC000331F220F331F2073242B2EB944B39C01CF
:102FD000220F331F2072242B24BB4EB19C01359548
:102FE0002795359527952870242B2EB9209102011D
:102FF00033E0959587953A95E1F78871822B809318
:1030000002018998899ABFCF8B9A0895DF92EF9237
:10301000FF920F931F93CF93DF93CDB7DEB76897DF
:103020000FB6F894DEBF0FBECDBF7C018B01F70158
:1030300084913196D490F2E0EF0EF11C8F3779F045
:10304000DE01119630E020E0AD012D1528F5F701E5
:10305000E20FF31FE491ED932F5F3F4FF6CF6D2DFD
:1030600070E090E080E00E94510ED12CED2DF0E058
:1030700032960E1B1F0B10161106CCF268960FB677
:10308000F894DEBF0FBECDBFDF91CF911F910F919E
:10309000FF90EF90DF900895ED0CF11C6D2D90E006
:1030A000F6DEE4CF8B988A98E2E0F1E02081277881
:1030B0002083A5982EB1277C2EB9A081292F30E03E
:1030C000A901B5E0440F551FBA95E1F740764A2BA8
:1030D0004083AEB1A901440F551F440F551F4073E3
:1030E0004A2B4EB9A4B3A901440F551F40724A2B75
:1030F00044BBAEB1A9015595479555954795487084
:103100004A2B4EB9408153E0359527955A95E1F702
:103110002871242B20838998899A208127782083FD
:10312000A5982EB1277C2EB940819C01A5E0880F7F
:10313000991FAA95E1F78076842B80834EB1C9014F
:10314000880F991F880F991F8073842B8EB944B301
:10315000C901880F991F8072842B84BB4EB1C901AD
:1031600095958795959587958870842B8EB98081E4
:10317000B3E035952795BA95E1F72871282B208380
:103180008998899A8A9A808187788083A5988EB158
:10319000877C8EB94081872F90E09C0155E0220FFB
:1031A000331F5A95E1F72076242B20834EB19C01E2
:1031B000220F331F220F331F2073242B2EB944B349
:1031C0009C01220F331F2072242B24BB4EB19C0183
:1031D00035952795359527952870242B2EB9208174
:1031E000A3E095958795AA95E1F78871822B808356
:1031F0008998899A808187788083A5988EB1877C09
:103200008EB94081CB019B01B5E0220F331FBA95E7
:10321000E1F72076242B20834EB19B01220F331F30
:10322000220F331F2073242B2EB944B39B01220F8E
:10323000331F2072242B24BB4EB19C01359527955A
:10324000359527952870242B2EB92081A3E09595DC
:103250008795AA95E1F78871822B80838998899A4E
:103260008B9A089581E080932604E1E0F1E080816B
:10327000886780839D9A8DB188638DB9809A819A81
:10328000829A839A849A8B9A889A899A8C9A62E312
:1032900070E080E090E00E94510E8C9864E670E04F
:1032A00080E090E00E94510E8C9A64E670E080E02D
:1032B00090E00E94510E70E060E080EB90E0F2CE72
:1032C0000F931F93CF93DF93EC01162F8091260469
:1032D000811101C0C7DF8B988A988091020187789D
:1032E00080930201A5988EB1877C8EB980910201EE
:1032F000809302018EB18EB984B384BB8EB18EB936
:1033000080910201809302018998899A809102013B
:10331000877880930201A5988EB1877C8EB9209121
:103320000201CE01A5E0880F991FAA95E1F78076EA
:10333000822B809302012EB1CE01880F991F880F36
:10334000991F8073822B8EB924B3CE01880F991FE9
:103350008072822B84BB2EB1CE0195958795959571
:1033600087958870822B8EB98091020143E0D595B4
:10337000C7954A95E1F7C871C82BC0930201899897
:10338000899A8A9A809101018778809301019D989A
:103390008DB1877C8DB961E070E080E090E00E94A3
:1033A000510E889A88988898889860910001ECB1AD
:1033B000C2B32CB100910001889A889A88988898A5
:1033C0008898409100015CB1A2B39CB1B09100011A
:1033D000889A115030F7889A8B9A809101018867FA
:1033E000809301019D9A8DB188638DB984E0289FF7
:1033F000900111242072332788E0089F8001112456
:10340000007C1127202BD0E0D595C795C071DD2712
:103410002C2BF0E0F595E795F595E795EC70FF27F7
:103420002E2B70E0E5E075956795EA95E1F76370FE
:103430007727262B64E0969FC0011124807298E0C4
:10344000B99FB0011124607C862BA695A0718A2BB0
:10345000569556955C70852B50E0F5E0559547954F
:10346000FA95E1F74370842B922FDF91CF911F9152
:103470000F910895FF920F931F93CF93DF938C01C9
:1034800060E01EDFEC0161E0C8011ADFF82E62E0A7
:10349000C80116DFAE0170E060E0742F6627552783
:1034A000442700E030E020E0402B5F29622B732BA3
:1034B000292F30E0C901B0E0A0E08A019B01082B70
:1034C000192B2A2B3B2BC901B801DF91CF911F91FA
:1034D0000F91FF9008950F931F93CF93DF938C016B
:1034E00060E0EEDEEC0161E0C801EADE8C01BE01C5
:1034F00090E080E0CB017727662730E020E0602B6A
:10350000712B822B932BDF91CF911F910F910895F7
:103510000F931F93CF93DF93EC018B01FE018591F5
:103520009491FE0132962496659174918F3F98078D
:1035300071F490E080E00E94510E045011091016C1
:10354000110664F3DF91CF911F910F910895AADDC9
:10355000F4CFFC01262F358D868D82958170982FB2
:103560009627692F70E072A361A330FF0BC082130E
:1035700006C080E290E050E040E060E088CC81E26C
:1035800090E0F9CF878D90A1873222E99207B8F4B5
:10359000853222E9920758F4803224E59207B1F08F
:1035A000833927E7920791F08435914099F4660FAB
:1035B000771F660F771F636187E090E073CD8632D7
:1035C00023E9920719F08930954B21F4626081E07C
:1035D00094E0F4CF81E690E0F1CF8F929F92AF928A
:1035E000BF92CF92DF92EF92FF920F931F93CF93F0
:1035F000DF9300D01F92CDB7DEB77C014B015A019B
:103600006901FC01878D90A18732F3E99F0709F0DA
:103610003EC0F7018689823089F5F0E2AF0EB11C19
:10362000005E1F4FF701858D80FF48C085A59982F8
:103630008A82DB82CC82AE014F5F5F4F64E090E014
:1036400026DCF70181A9B982AA821B830C83AE0113
:103650004F5F5F4F64E090E01ADC0F900F900F9087
:103660000F90DF91CF911F910F91FF90EF90DF901E
:10367000CF90BF90AF909F908F900895833091F638
:1036800020E2820E911C80E2C80ED11CCBCF863284
:10369000954141F6F701868980FFC4CFC801841B9C
:1036A000950B19F40F5F1F4FBDCF6217730709F019
:1036B000B9CF6B01C80ED91E8A01B4CFB40187A15E
:1036C00090A5F0DCB501F70181A592A5EBDCC8144B
:1036D000D90421F40A151B0509F4BFCFF701858D24
:1036E00085FF08C0868980FF1AC0102F0027A02AF6
:1036F000B12A8501B401F70185A596A5D3DCB501F2
:10370000F70181A992A9CEDCB601F70187A590A99E
:10371000C9DCB801F70183A994A9C4DC9ECFDC2CD5
:10372000CC248C289D286401E5CFAF92BF92CF9224
:10373000DF92EF92FF920F931F93CF93DF93EC01F1
:1037400080911C04882349F0C701880F991F8E734C
:103750009927E1ECEE22E82AF92A37FF05C0620F2B
:10376000731F319521953109260F371F77FF02C04E
:1037700070E060E088859985281739070CF4C90145
:103780006C01C61AD70A17FF05C0400F511F1195CB
:1037900001951109040F151F57FF02C050E040E0CA
:1037A0002A853B85021713070CF498015901A41AC6
:1037B000B50A8901015011099C0121503109CE013E
:1037C0000CDF8B988A985BA54CA5809102018778C5
:1037D00080930201A5988EB1877C8EB96091020119
:1037E000842F90E09C01F5E0220F331FFA95E1F75A
:1037F0002076262B209302016EB19C01220F331FED
:10380000220F331F2073262B2EB964B39C01220F85
:10381000331F2072262B24BB6EB19C013595279552
:10382000359527952870262B2EB92091020103E0AB
:10383000959587950A95E1F78871822B809302010F
:103840008998899A80910201877880930201A598CE
:103850008EB1877C8EB960910201852F942F9C01D7
:1038600045E0220F331F4A95E1F72076262B20935F
:1038700002014EB19C01220F331F220F331F207310
:10388000242B2EB944B39C01220F331F2072242B0A
:1038900024BB4EB19C013595279535952795287009
:1038A000242B2EB920910201E3E095958795EA95A6
:1038B000E1F78871822B809302018998899A8A9A0C
:1038C000CA14DB042CF09A2D8B2D5601C92ED82E4C
:1038D0008F2D99279C0145E0220F331F4A95E1F770
:1038E0002076AC01440F551F440F551F342F307301
:1038F000AC01440F551F4072BC01759567957595D5
:103900006795562F5870F3E095958795FA95E1F7EE
:103910008871B701A5E0660F771FAA95E1F7962F8A
:103920009076B701660F771F660F771F6073F701F8
:10393000EE0FFF1F7E2F7072D701B595A795B59535
:10394000A795A870E3E0F594E794EA95E1F7EE2DEA
:10395000E871EE2E1C141D040CF043C0F501B0916B
:103960000201B778B0930201A598BEB1B77CBEB989
:10397000B0910201B22BB0930201BEB1B32BBEB91C
:10398000B4B3B42BB4BBBEB1B52BBEB9B091020178
:10399000B82BB09302018998899AB0910201B77847
:1039A000B0930201A598BEB1B77CBEB9B091020137
:1039B000B92BB0930201BEB1B62BBEB9B4B3B72BCD
:1039C000B4BBBEB1BA2BBEB9B0910201BE29B0934F
:1039D00002018998899A319711F6E1E0CE1AD1084F
:1039E000B9CF8B9A8D8D80FF08C08F8D98A18632BC
:1039F000954189F48E8980FF0EC00A851B85015090
:103A00001109288539852150310950E040E070E0E6
:103A100060E0CE01E2DDDF91CF911F910F91FF9029
:103A2000EF90DF90CF90BF90AF900895EF92FF920C
:103A30000F931F93CF93DF937C01E90177FD28C09B
:103A400057FD26C0FC01808591856817790704F52C
:103A50008285938548175907DCF480911C048823DC
:103A600041F0C901880F991F8E739927C17CC82B1B
:103A7000D92B8A019B01C701B0DDBE01F70183A5E7
:103A800094A5DF91CF911F910F91FF90EF900ACBFA
:103A9000DF91CF911F910F91FF90EF900895EF92DA
:103AA000FF920F931F93CF93DF9300D000D000D0ED
:103AB0001F92CDB7DEB77C01862F8370F701868B0E
:103AC000962F917060FFEBC026813781F701318717
:103AD0002087992309F4E6C024813581F7013387D3
:103AE0002287823009F4E3C0833009F4E2C08130D8
:103AF00009F4DBC088E48A87F701258D368D30FF15
:103B000003C08A8580588A8731FF04C08A8590E483
:103B100089278A8733FF04C08A8598E089278A87A6
:103B2000F701878D90A120FFF4C08431F8E69F074C
:103B300009F0C1C09A85892F88728A871F82892FD0
:103B400085958074282F2260892F90E09595879520
:103B500080729927822B88878BE38987AE01495F22
:103B60005F4F63E086EB90E092D92AE230E0F70104
:103B700030A727A38BE290E092A781A74CE250E008
:103B800054A743A736A725A730AB27A792AB81AB95
:103B900094AB83ABAE01465F5F4F61E086E390E09C
:103BA00076D98A8590E0F70194A383A3F7018689EB
:103BB00080FF1CC0858D968D92FD18C087A190A5B1
:103BC00021A532A530A727A392A781A785A596A5F1
:103BD00021A932A936A725A792AB81AB87A590A9C9
:103BE00023A934A930AB27A794AB83ABF701028597
:103BF000138501501109208531852150310950E08C
:103C000040E070E060E0C701E8DCF70166817781A1
:103C1000878D90A110E000E020E08732F3E99F0754
:103C200069F4F7012689225010E000E0223010F4F8
:103C300000E210E020E230E0201B310BF701458D5F
:103C400040FF1EC119820A837B836C831D822E83F1
:103C5000AE014F5F5F4F66E083E390E018D91982B1
:103C60000A83AE014F5F5F4F62E087E390E00FD9B8
:103C7000F701858D80FF06C050E040E060E083E101
:103C800090E005D92A960FB6F894DEBF0FBECDBFDF
:103C9000DF91CF911F910F91FF90EF9008952481B4
:103CA000358114CF2681378119CF88E224CF88E966
:103CB00022CF88EF20CF833629E1920749F081385F
:103CC00044E9940729F08131E5E19E0709F04DCFE1
:103CD0002A8527FF02C021602A872A8526FF02C085
:103CE00022602A878336F9E19F0721F48A858F7342
:103CF0008A873BCF813824E9920719F48A858F722D
:103D0000F7CF8131954109F030CF8A858F7E806C65
:103D1000EFCF6A85262F062E000C330B8339F7E789
:103D20009F0761F008F041C08435E1E09E0709F487
:103D300069C08032F4E59F0709F040C040E052E0DE
:103D4000F70150A747A341E052E052A741A742E044
:103D500052E054A743A740E152E056A745A741E1EE
:103D600052E050AB47A742E152E052AB41AB43E1D6
:103D700052E054AB43AB222730788632F3E99F07F9
:103D800029F060E07AE68032944511F460E075E352
:103D9000622B732B80E094E085D96A85F4E06F9FF5
:103DA000B00111246627717055C0863243E994072B
:103DB00029F28930E5EB9E0709F4C0CF80E290E05C
:103DC000F70190A787A381E290E092A781A782E202
:103DD00090E094A783A780E590E096A785A781E56A
:103DE00090E090AB87A782E590E092AB81AB83E552
:103DF00090E094AB83ABB90166277078776280E678
:103E000090E0CACF87E390E0F70196A785A786E305
:103E100090E090AB87A789E390E092AB81AB88E319
:103E200090E094AB83AB80E290E090A787A381E21F
:103E300090E092A781A782E290E094A783A7F4E0A4
:103E40006F9FB0011124662771702227327028629B
:103E5000622B732B81E090E025D98A85682F70E072
:103E600075956795759567956870772783FD70617F
:103E70006063F70174A363A383E090E013D996CE47
:103E80008339F7E79F0771F1E0F4803244E5940746
:103E900049F18338E7E79E0781F184359140D1F4F9
:103EA000600F711F6150710981E390E0FBD8B80188
:103EB00082E390E0F7D870E060E083E390E0F2D82E
:103EC000E1CE863223E9920769F048F4855292499F
:103ED000029730F3F70161A172A1626011C08930CD
:103EE000954BC1F7F70161A172A1626081E094E096
:103EF000D9D8B80184E094E0E2CFF70161A172A1C2
:103F000081E690E0CFD8B8018AE690E0D8CFEF9272
:103F1000FF920F931F93DC01ED91FC9100A0F1A1A2
:103F2000E02D780101E010E019951F910F91FF90AD
:103F3000EF900895EF92FF920F931F93DC01ED91A4
:103F4000FC9100A0F1A1E02D7801890121E030E091
:103F500019951F910F91FF90EF90089590E080E0E8
:103F600008954F925F926F927F928F929F92AF923D
:103F7000BF92DF92EF92FF920F931F93CF93DF9345
:103F80008C01EB0188818B32D1F18D32C9F52196FC
:103F9000EE24E394888190ED980F9A3010F08E32E1
:103FA00089F560E070E0CB01FE012191A0ED8A2E41
:103FB000820E39E0381508F440C06A3929E97207E1
:103FC000820729E1920708F04DC0AAE0B0E09B010A
:103FD000AC010E946045912CB12CA12C240135012B
:103FE000409450946094709446165706680679067B
:103FF000C8F1680D791D8A1D9B1DEF01D5CF219653
:10400000E12CC8CFF801108211821282138214822F
:104010001582168217821086C801DF91CF911F91F9
:104020000F91FF90EF90DF90BF90AF909F908F9097
:104030007F906F905F904F900895211113C0F80109
:1040400060837183828393830E942F44F801648389
:104050007583868397838AE0E11001C088E0F801C8
:104060008087DACFF12CEAE08E2E912CA12CB12C96
:1040700061157105F0E88F07910540F0A5019401E5
:104080000E946A45CA01B901F394F2CFFE01299159
:1040900030ED320F3A3010F4F394F8CF2E32F1F4C1
:1040A000EF012196FE012196208150EDD52ED20EF2
:1040B00029E02D1598F06C3C3CEC73073CE083073D
:1040C000910580F7AAE0B0E09B01AC010E94604539
:1040D0006D0D711D811D911DFA94E4CF20812F7DFE
:1040E000D0E0C0E0253409F04FC021812D32A9F580
:1040F0003296BB24B394DF01D0E0C0E02F2D0F2C0B
:10410000000C330B4AE0A42EFD01DD9040ED4D0D77
:104110004A30A8F5AC9EA001AD9E500D1124CD2DC6
:10412000DD0CDD0BE097C40FD51FAE01420F531F0E
:10413000473251054CF3BB20B9F080E090E0A0E09D
:10414000B0E8E11003C080E090E0DC01F801848376
:104150009583A683B7838CE083CF2B3219F03196F9
:10416000B12CC9CF3296FCCF80E090E0A0E8BFEF41
:10417000E110ECCF80E090E0A0E8BFE7E7CFBB2004
:1041800019F0D195C195D109208121113BCFCF0DD7
:10419000D11DF7FCDA950E942F441C161D06E4F48D
:1041A000F12CC0FF0CC024E0F29EF0011124E15C70
:1041B000FD4F20813181428153810E949044D595E9
:1041C000C795F394209769F7E1109058F80164833C
:1041D000758386839783BFCFD195C195D109F12C83
:1041E000209791F3C0FF0CC024E0F29EF00111244F
:1041F000E95DFD4F20813181428153810E949044CD
:10420000D595C795F394ECCF80339CF08A3324F096
:104210008F3524F08B3724F481E0089581344CF0FD
:104220008B35D4F393ED980F81E09230B0F380E0BA
:1042300008958B32B9F7F0CFCF93DF9300D000D041
:1042400000D0CDB7DEB7FC0194819F77963069F03E
:1042500030F4943008F560E070E0CB0114C09A307F
:1042600059F09C30B9F19830B1F760817181828149
:1042700093810E942F4407C0608171818281938164
:104280000E942F44905829960FB6F894DEBF0FBEB7
:10429000CDBFDF91CF91089560817181CE010196EC
:1042A00060DE69817A818B819C8129852A3029F0A1
:1042B0002C3059F0283079F6DCCF909580957095A8
:1042C00061957F4F8F4F9F4FD4CF6D817E818F81BE
:1042D0009885D9CF6081718182819381D4CFFC018F
:1042E0008185811114C0A481B581868197812FEFCA
:1042F0003FEFA817B90730F4CD0101969583848369
:104300002C9130E037FD20E0208781E08187808597
:1043100008951F93CF93DF93EC01162FE0DF8113F5
:1043200006C0198681E0DF91CF911F91089580E04A
:10433000FACFCF93DF93EC01CE01D1DF8B303CF489
:1043400089304CF4882349F090E080E008C08D303B
:1043500011F08032C9F71986EFCF81E090E0DF914C
:10436000CF910895CF93FC01892B91F094819F7791
:10437000983029F078F4992359F0963079F4C1E017
:1043800080819181A281B381892B8A2B8B2B39F477
:10439000C0E005C09A3099F39C3021F0C1E08C2F29
:1043A000CF910895C1E020E030E0A90160817181E2
:1043B000828193810E942B448111F1CFE9CFEF924A
:1043C000FF920F931F93F12CE12C0AED10E02CEDDE
:1043D00031E04DE350E062E070E089ED95E0A5D971
:1043E0001F910F91FF90EF9008950F931F9304E199
:1043F00010E020E431E040EE51E070E060E090E059
:1044000080E00E947A1528E230E040EE51E068E159
:1044100071E090E080E00E947A152CE330E040EEFD
:1044200051E070E060E090E080E00E947A1528E2C0
:1044300030E040E550E06AE070E08AE090E00E9401
:104440007A150E94820E70932504609324041F91B4
:104450000F910895AF92BF92CF92DF92EF92FF92A9
:104460000F931F93CF93DF9300D000D01F921F9222
:10447000CDB7DEB75B019E01295F3F4F6901225036
:10448000310979018E010D5F1F4F24503109AB01B5
:1044900060EE71E00E94AE0A0F8118852D813E8189
:1044A000C80196958795A501481B590BC90196959A
:1044B000879560EF70E0681B790BF12CE12C89ED9A
:1044C00095E033D928960FB6F894DEBF0FBECDBF66
:1044D000DF91CF911F910F91FF90EF90DF90CF90E0
:1044E000BF90AF9008958F929F92AF92BF92CF925C
:1044F000DF92EF92FF920F931F93CF93DF9300D041
:1045000000D01F921F92CDB7DEB75B014A019E011A
:10451000295F3F4F69012250310979018E010D5FFA
:104520001F4F245031090E94AE0A0F8118852D813A
:104530003E81F12CE12CA401B50189ED95E0F5D87F
:1045400028960FB6F894DEBF0FBECDBFDF91CF9196
:104550001F910F91FF90EF90DF90CF90BF90AF90A1
:104560009F908F9008958F929F92AF92BF92CF921B
:10457000DF92EF92FF920F931F93CF93DF9300D0C0
:1045800000D01F921F92CDB7DEB74C015B01CE0168
:1045900007966C0102977C018E010D5F1F4F9E01F3
:1045A0002F5F3F4FAB0160EE71E0C4010E94AE0A85
:1045B0008F81988596958795A81AB90AE9EDF5E057
:1045C0002D813E813695279580EF90E0821B930BDD
:1045D00095878487B786A686B401CF010E942D0CEB
:1045E00028960FB6F894DEBF0FBECDBFDF91CF91F6
:1045F0001F910F91FF90EF90DF90CF90BF90AF9001
:104600009F908F900895FC0184819581009799F087
:1046100022813381468157812417350718F015828E
:1046200014820895A9014F5F5F4F53834283820F25
:10463000931FFC0160830895FF920F931F93CF9304
:10464000DF9300D000D01F921F92CDB7DEB78C0150
:10465000DC011296ED91FC91228133818481958158
:1046600093838283FA83E9831C821B823E832D839A
:10467000821B930B98878F83C80131DEF82EF801D7
:104680001186C8012CDED80119961C92F816B9F1D2
:10469000811110C061E070E080E090E028960FB6D4
:1046A000F894DEBF0FBECDBFDF91CF911F910F9168
:1046B000FF9008958C35F1F4C80111DE882351F381
:1046C000853729F464E070E080E090E0E7CFE1EA2C
:1046D000F2E09081992329F0891308C0818181112A
:1046E00007C062E070E080E090E0D8CF3296F1CF72
:1046F000F8011186682FCE01019685DFC2CF60E0F8
:10470000CE01019680DF8D819E81892B79F0E98130
:10471000FA818B819C812F813885AC01421B530B20
:1047200082819381840F951F938382832D813E81A3
:1047300063E070E080E090E02115310509F4AECF30
:1047400060E070E0CB01C901A9CFFC0180819181BB
:10475000892B21F460E070E0CB0108956BE27CE0EE
:1047600090E080E00895CF93DF93DC01EB01EC81D2
:10477000FD818A819B810896E817F90730F4F0E003
:10478000E0E0CF01DF91CF9108953897FD83EC836E
:104790003097A9F31296CD91DC911397209791F061
:1047A000CF018C1B9D0B23E0959587952A95E1F70A
:1047B0008D831396FC93EE931297158214821782C1
:1047C0001682DFCF1196FC93EE93F3CFEF92FF9218
:1047D0000F931F93DC011A960D911C911B9718964D
:1047E0002D913C911997ED91FC9100A0F1A1E02D44
:1047F0007B0150E040E070E060E019951F910F915F
:10480000FF90EF900895CF93DF93EC0160E08E81ED
:104810000E946F0D61E08E810E946F0D60E08E81BD
:104820000E946F0D8BE891E00197F1F7DF91CF9136
:104830000895CF92DF92EF92FF920F931F93CF9341
:10484000DF936C017C0187E0E80EF11CD0E0C0E052
:10485000062F10E0B8010C2E02C0759567950A94DA
:10486000E2F76170F70181917F010E946F0D21963F
:10487000C430D10579F7C601DF91CF911F910F9117
:10488000FF90EF90DF90CF90BECFCF92DF92EF926C
:10489000FF920F931F93CF93DF93EC01F62E642FBB
:1048A0008C810E946F0D8D818F3F19F060E00E9416
:1048B0006F0D0F2D10E08F8584FF24C06E0187E0FF
:1048C000C80ED11CF12CE12CB8010E2C02C075953C
:1048D00067950A94E2F76170F60181916F010E9479
:1048E0006F0DFFEFEF1AFF0A88E0E816F10461F799
:1048F000CE01DF91CF911F910F91FF90EF90DF904C
:10490000CF9081CFB80184E0759567958A95E1F7DE
:10491000CE018FDF6F2DCE01DF91CF911F910F91CF
:10492000FF90EF90DF90CF9084CF40E0682F81EC34
:1049300095E0ABCFCF93DF93823029F49091D005EF
:1049400098609093D0058093D4051092D50580E4AB
:104950008093D60580E18093D70580E58093D805C4
:1049600061E08091C5050E94FB0D8091C6058F3FD7
:1049700019F061E00E94FB0D61E08091C7050E9483
:10498000FB0DC1ECD5E09E01215C35408091D00546
:1049900084FD0BC084E090E021962817390744F489
:1049A00061E08E810E94FB0DEECF88E090E0F4CFB5
:1049B0008BE39DE00197F1F760E08091C5050E94CF
:1049C0006F0D60E08091C7050E946F0D8091C60554
:1049D0008F3F19F060E00E946F0D8091D00584FD3B
:1049E00031C063E081EC95E024DFCBE4D6E4CE0176
:1049F0000197F1F763E081EC95E01BDF2197F1F778
:104A000063E081EC95E015DF83E592E00197F1F733
:104A100062E081EC95E00DDF8091D005806285DF5A
:104A200084E08093D1058CE080DF81E07EDF8BE342
:104A30009FE10197F1F782E08093D20586E0DF9154
:104A4000CF9173CF806271DF8BE496E40197F1F729
:104A50008091D005806269DF83E592E00197F1F7EC
:104A60008091D005806261DFD7CF41E00EDF81E029
:104A700090E00895FC0124813581232B31F421E05D
:104A8000FB01672B49F4822F089580819181611584
:104A9000710539F421E0FC0180818823A1F320E035
:104AA000F2CF0E94E64821E0892B69F3F8CF70E04D
:104AB00060E0E0DF91E0811190E0892F0895FC0132
:104AC00024813581FB014481558124173507E1F4A8
:104AD000FC0180819181FB01608171810097D1F09F
:104AE00061157105A1F4232BC1F0FC01808190E0D8
:104AF00008C0232B91F0FB01808190E09195819576
:104B0000910921E0892B09F020E0822F08950E946D
:104B1000E648F7CF6115710561F721E0F6CF0F93F5
:104B20001F93CF93DF938B01EC012097E1F06E810F
:104B30007F8160177107B9F00115110541F061150A
:104B4000710529F0C8010E94E648892B61F08D812A
:104B5000882339F028E08202C0011124C80FD91F30
:104B6000E4CFD0E0C0E0CE01DF91CF911F910F9153
:104B700008958F929F92AF92BF92CF92DF92EF9261
:104B8000FF920F931F93CF93DF93CDB7DEB7CB5434
:104B9000D1090FB6F894DEBF0FBECDBF8C017B01EB
:104BA000D42EC7DB2C969FAF8EAF2C97CE01865BA1
:104BB0009F4FCBDD672B09F0A4C080FDA2C0C801C8
:104BC0008EDB873209F493C1FCF4823209F48FC181
:104BD000C80185DBC82EFE0131964F01D12C5F0143
:104BE0008C2D12DB882309F49EC1FFE3DF1609F444
:104BF0009AC1D80119961C92D394F401C1924F0125
:104C0000C8016DDBC82EECCF8B3509F494C08B370F
:104C1000F9F6F701848180788062848311821082A2
:104C200013821282DD2009F460C1D80119961C920A
:104C3000C8017FDB23969FAF8EAF2397CE018F5B9A
:104C40009F4F83DD672B09F0ECC080FDEAC06DE764
:104C5000C8015FDB8111BDC0DA94C80140DB873237
:104C600009F4C0C0823209F4BDC0D8011296ED919A
:104C7000FC91228133818481958193838283FA839D
:104C8000E9831C821B823E832D83821B930B9887B2
:104C90008F83C80124DBA82EB7DA22E030E0882316
:104CA00069F1F80111866A2DCE010196ACDCC801CC
:104CB00016DBA82EA9DA8111F4CF60E0CE010196AF
:104CC000A2DC8D819E81892B79F0E981FA818B812B
:104CD0009C812F813885AC01421B530B82819381CB
:104CE000840F951F938382838D819E8123E030E022
:104CF000009721F0B82EC92E30E020E09B2CAC2C80
:104D000078C02B968FAD2B972C969FAD2C97C55BBB
:104D1000DF4F0FB6F894DEBF0FBECDBFDF91CF914E
:104D20001F910F91FF90EF90DF90CF90BF90AF90C9
:104D30009F908F900895D70114968C911497807846
:104D4000806414968C93149711961C921E9213965D
:104D50001C921E921297DD2009F4C7C0F80111863B
:104D6000C801E7DA9A838983CE010196EEDC672BCE
:104D700031F580FD24C06DE5C801CBDA811129C071
:104D8000DA94D8016D917C91C701EDDC009709F4AC
:104D9000A9C04D2DBC01C801ECDE9A838983CE01E8
:104DA0000196D3DC672B59F480FD09C0C801C1DA34
:104DB0009A838983CE010196C8DC672B19F089811B
:104DC0009A81A5CF80FDFBCF6DE5C801A2DA8823CB
:104DD00011F080E088C06CE2C8019BDA8111D1CF6C
:104DE00082E081C0C80128DC9B019B2CAC2CB82E32
:104DF000C92E23963FAF2EAF2397CE018F5B9F4FD7
:104E0000A4DC672B71F480FD0CC0C80192DA2396F4
:104E10009FAF8EAF2397CE018F5B9F4F96DC672BA2
:104E200039F022968FAD229723969FAD23976FCFAF
:104E300080FDF7CF6AE3C8016CDA882389F26B2D15
:104E40007C2DD7018D919C916ADEBC01892B79F470
:104E5000F80160817181C70186DCFC01892B09F4AE
:104E600041C0848180688483B682C782BF014D2D92
:104E7000C8017FDE23969FAF8EAF2397CE018F5B55
:104E80009F4F63DC672B69F680FDCBCFC80151DAF9
:104E900023969FAF8EAF2397CE018F5B9F4F55DC3C
:104EA000672B09F0BECF80FDBCCF6DE7C80131DABA
:104EB00081118FCF6CE2C8012CDA882309F490CFDE
:104EC000C80137DA23969FAF8EAF2397CE018F5B51
:104ED0009F4F3BDC672B09F0A4CF80FDA2CFB92CFC
:104EE000CA2CBBCE83E090E012CF85E0FCCFC80196
:104EF000A3DB69837A838B839C83CE01019625DCB7
:104F0000672B09F05CCF80FD5ACF2B813C81D70104
:104F100014968C9114978078856014968C931497CE
:104F20002D933C9356CFF501ED0DF11D1082898133
:104F30008437B9F4D70114968C91149780788660E1
:104F400014968C9381E090E0A0E0B0E0F7018083BC
:104F50009183A283B38390E0F4E0DF12D8CE80E0A7
:104F6000D6CE863689F4D70114968C911497807822
:104F7000866014968C93F70110821182128213823C
:104F800081E090E0F5E0E9CF8E3631F481E090E009
:104F900024E0D212BCCEE3CFB501CE018F5B9F4F90
:104FA0000E94B11F25964CAD5DAD6EAD7FAD2597CE
:104FB0002A968FAD2A978A3061F08C30C1F0883004
:104FC00009F00ECFD70114968C91149780788860E1
:104FD00006C0D70114968C91149780788A60149635
:104FE0008C93F7014083518362837383F2CE2996B9
:104FF0004CAD5DAD6EAD7FAD2997D70114968C9108
:10500000149780788C6014968C93F70140835183B9
:1050100062837383DECE009721F0FC018081918151
:105020007ECD90E080E00895CF93C62FFC0165818E
:10503000768181819281EFDF0097C9F0FC012481A4
:105040002F772630A1F421E030E080819181A28188
:10505000B381892B8A2B8B2B11F430E020E02C1BA1
:10506000310981E0232B09F480E0CF91089521E0FC
:1050700030E0F7CF4F925F926F927F928F929F9224
:10508000AF92BF92CF92DF92EF92FF920F931F9356
:10509000CF93DF9362EB72E08091AF059091B00502
:1050A000BADF009709F4C6C0C7D8609301027093B5
:1050B0000202809303029093040220E030E042E574
:1050C00053E40E9490449B01AC0160E070E082E5F3
:1050D00093E40E949B450E94684610E000E02AE0AD
:1050E00030E0AB0162E470E08BEA91E00E94611471
:1050F0008090010290900202A0900302B0900402FE
:1051000020E030E048EC52E4C501B4010E94904434
:105110000E9468466B019B01A1E0BFEF0E94B84668
:1051200024E6422E512C612C712CA30192010E9485
:10513000444521503F4F4F4F5F4F30E0322F2227E1
:10514000E901CC27D87FD6012FEF30E00E94BE4680
:10515000A30192010E94444588E0289F8001112408
:10516000007E17700C2B1D2B20E030E041E553E44E
:10517000C501B4010E9490449B01AC0160E070E065
:1051800084E593E40E949B459B01AC0160E070E0E4
:1051900084E593E40E949B450E9468466B0120E0F1
:1051A00030E042E553E4C501B4010E9490449B0104
:1051B000AC0160E070E084E593E40E949B4520E050
:1051C00030E042E852E40E949C450E94684628E094
:1051D00030E0A6018BEA91E00E9461140AE010E041
:1051E00024ED30E042E350E060E470E08AEA91E0D0
:1051F0000E947A15EE24EA94FE2C00E210E020E2F0
:1052000030E044EE50E060EA70E083EB91E00E9411
:105210002916DF91CF911F910F91FF90EF90DF90B2
:10522000CF90BF90AF909F908F907F906F905F9046
:105230004F90089560E070E0CB0137CFFC012481EE
:1052400025FF03C0808191816ACC90E080E00895C1
:10525000FB0101900020E9F73197AF01461B570B86
:10526000DC01ED91FC910280F381E02D1994CF9344
:10527000DF93BC0184EC94E0EBDFEC0167EB72E0C0
:1052800084EC94E0E5DF8C0F9D1FDF91CF910895B2
:105290000F931F93CF93DF938C01EB01FC0180816F
:1052A00091810097E1F06881798161157105A9F01C
:1052B000428153812C813D814217530770F00E9437
:1052C000EF488C819D81F801958384831D821C8227
:1052D000DF91CF911F910F9108950E9474478881AB
:1052E0009981F801918380838A819B819383828352
:1052F0008C819D8195838483198218821B821A82F6
:10530000E5CFCF93DF93EC0188819981009711F06D
:105310000E947447198218821D821C821B821A8285
:10532000DF91CF910895FC0180819181009711F068
:105330000C94744708950F931F93CF93DF93EC0160
:1053400088819981009759F02A813B812617370778
:1053500030F081E0DF91CF911F910F9108958B0183
:105360006F5F7F4F0E94FD47009759F099838883B4
:105370001B830A832C813D81232B59F7FC0110826A
:10538000E8CF80E0E7CFEF92FF920F931F93CF9388
:10539000DF936115710541F480E0DF91CF911F919A
:1053A0000F91FF90EF90089541155105A9F07B01F1
:1053B000EC010C811D81040F151FB801BCDF88238F
:1053C00059F3288139818C819D81B701820F931F08
:1053D0000E94EF481D830C8381E0DFCFCF93DF93E2
:1053E000EC01FB0101900020E9F73197AF01461B6A
:1053F000570BC9DF811102C0CE0183DFCE01DF91DF
:10540000CF910895CF93DF93EC01FB014481558147
:1054100060817181B8DF811102C0CE0172DFCE01DF
:10542000DF91CF910895CF93DF931F921F92CDB755
:10543000DEB769831A8241E050E0BE016F5F7F4FA3
:10544000A2DF0F900F90DF91CF910895CF93DF935C
:10545000EC0167EFE8DF811102C0CE0152DFCE011F
:10546000DF91CF910895CF93DF93EC01CE5BDF4FB7
:10547000E881F981E80FF91F1282BC016E5F7F4F4E
:1054800061F0FB0101900020E9F73197AF01461B65
:10549000570BFC018081918176DF19821882DF91A0
:1054A000CF910895CF93DF93EC01FC01EE5BFF4FAA
:1054B000808191819C012F5F3F4F31832083FE01CA
:1054C000E80FF91F628302968034910510F0CE0137
:1054D000CADFCC5BDF4F88819981019699838883ED
:1054E000DF91CF910895EF92FF920F931F93CF9387
:1054F000DF93EC017B0162E2D5DF8701F801619166
:105500008F01662381F0E1EAF2E0F280FF2041F0B2
:10551000329681816813F9CF6CE5CE01C3DF6F2D20
:10552000CE01C0DFEBCF62E2CE01DF91CF911F91C0
:105530000F91FF90EF90B6CFAF92BF92CF92DF92D4
:10554000EF92FF920F931F93CF93DF938C017A0119
:10555000EB016B01C40ED51E5C0182E4A80EB11CE8
:10556000CC15DD05A1F02991F50180819181AC0177
:105570004F5F5F4F51834083F801E80FF91F22838B
:1055800002968034910560F3C8016DDFE9CFC70151
:10559000DF91CF911F910F91FF90EF90DF90CF900F
:1055A000BF90AF900895EF92FF920F931F93CF9308
:1055B000DF93CDB7DEB766970FB6F894DEBF0FBEA8
:1055C000CDBF8C01CB01FE0177969F014AE0E42E0E
:1055D000F12CB7010E949D46805D8293CB0100971C
:1055E000C1F7A9014E1B5F0BBF01C801A5DFF80180
:1055F000EC5BFF4F20813181820F931F9183808369
:1056000066960FB6F894DEBF0FBECDBFDF91CF9187
:105610001F910F91FF90EF9008958F929F92AF92FC
:10562000BF92CF92DF92EF92FF920F931F93CF938F
:10563000DF93CDB7DEB766970FB6F894DEBF0FBE27
:10564000CDBF8C017E0187E1E80EF11C67018AE085
:10565000882E912CA12CB12CCB01BA01A50194016B
:105660000E946A45942F852F605DF70162937F0148
:10567000A901692F782F411551056105710561F761
:10568000A6014E1B5F0BBF01C80156DFF801EC5BA2
:10569000FF4F20813181820F931F91838083669613
:1056A0000FB6F894DEBF0FBECDBFDF91CF911F9133
:1056B0000F91FF90EF90DF90CF90BF90AF909F90B1
:1056C0008F900895CF93DF93EC01FB0101900020B0
:1056D000E9F73197AF01461B570B2EDFCC5BDF4F4D
:1056E00028813981820F931F99838883DF91CF911D
:1056F00008952F923F924F925F926F927F928F9276
:105700009F92AF92BF92CF92DF92EF92FF920F9350
:105710001F93CF93DF93CDB7DEB76A970FB6F89498
:10572000DEBF0FBECDBF8C014B01DC0114968C9106
:1057300014978F77863009F465C2B8F48230F0F0A0
:10574000843008F047C212964D915C9113976D9189
:105750007C91C401F1DEF401EC5BFF4F20813181CB
:10576000820F931F91838083E8C18C3079F148F4D4
:10577000883009F442C28A3009F432C26AEB72E01E
:105780004EC2803209F4FEC18034C1F76BE5C4011A
:1057900089DED8010D911C910115110509F4EEC1A6
:1057A000B401C801A6DFF8018581882309F4E6C1A8
:1057B000F8E08F02C0011124080F191F011511050F
:1057C00009F4DCC16CE2C4016DDEE6CFF801408073
:1057D000518062807380A3019201C301B2010E94D3
:1057E0002B448111CBCF20E030E0A901C301B201ED
:1057F0000E942B44882379F0A3019201C301B201D6
:105800000E949C459B01AC01C301B2010E942B4444
:10581000882309F4B3CF20E030E0A901C301B2012D
:105820000E942B4487FF07C06DE2C4013BDE77FA7C
:10583000709477F8709420E836E948E15BE4C3019E
:10584000B2010E94994687FD79C047E5E42E42E007
:10585000F42E57E2C52E52E0D52E6FE3A62E62E05D
:10586000B62E00E210E0312C212CD7015E914E9132
:105870003E912E917D01C301B2010E94994687FDA0
:105880000DC0F6012489358946895789C301B201C3
:105890000E9490442B013C01200E311E1595079566
:1058A000F4E0CF1AD108AE14BF04F9F62FEF2B8B1A
:1058B00020E030E0A901C301B2010E949946181608
:1058C0000CF043C02CEA35EC47E257E3C301B201C8
:1058D0000E942B441816CCF19B89A4E09A02500137
:1058E0001124D12CC12CBB89BF3F79F17501EC0C7F
:1058F000FD1CF701E15FFD4FA30192016081718101
:10590000828193810E94994618167CF4F701E15C2C
:10591000FD4F2081318142815381C301B2010E9438
:1059200090442B013C01201A310A15950795EB890B
:10593000E150EB8BF4E0CF1AD108D5CF00E210E0B4
:1059400085E08B8B312C212CB3CFC301B2010E9497
:105950006D466B8B7C8B8D8B9E8B6B017C0116E077
:1059600080E492E4AFE0B0E08F8B988FA98FBA8F7C
:10597000012F11509AE0C916D104E104F104C8F0D6
:105980006F89788D898D9A8D2AE030E040E050E073
:105990000E946A452F8B388F498F5A8FC701B601F5
:1059A0002AE030E040E050E00E946A4569017A0157
:1059B000DFCF6B897C898D899E890E942F449B0152
:1059C000AC01C301B2010E949B456B017C016F8950
:1059D000788D898D9A8D0E942F449B01AC01C7015F
:1059E000B6010E9490442B013C010E946D466B0160
:1059F0007C010E942F449B01AC01C301B2010E94B3
:105A00009B459B01AC010E949C450E946D46C60EC1
:105A1000D71EE81EF91E8F89988DA98DBA8DC816DC
:105A2000D906EA06FB0600F18B899C89AD89BE89FF
:105A30000196A11DB11D8B8B9C8BAD8BBE8B211450
:105A4000310439F10A97A105B10518F19FEF291A20
:105A5000390AC12CD12C760181E090E0A0E0B0E0C1
:105A60008B8B9C8BAD8BBE8B9AE0492E512C612C7D
:105A7000712CC701B601A30192010E946A45672BF0
:105A8000682B692B51F4101644F469017A01015016
:105A9000F0CFC12CD12C7601E7CF4B895C896D8981
:105AA0007E89C401BADD0023E1F15E0191E1A90E16
:105AB000B11C102FBA8AA98A8AE0482E512C612C79
:105AC000712C115068F0C701B601A30192010E9428
:105AD0006A45605DD5016E935D0169017A01F1CF80
